:020000040800F2
:1000000028210020650100085B0400083B0400086B
:1000100057040008D50200089509000800000000F8
:10002000000000000000000000000000FD060008C5
:10003000D9020008000000009D040008ED07000838
:100040007B0100087B0100087B0100087B010008A0
:100050007B0100087B0100087B0100087B01000890
:100060007B0100087B0100087B0100087B01000880
:100070007B0100087B0100087B0100087B01000870
:100080007B0100087B0100087B0100087B01000860
:100090007B0100087B0100087B0100087B01000850
:1000A0007B0100087B0100087B0100087B01000840
:1000B0007B0100087B0100087B0100087B01000830
:1000C0007B0100087B0100087B0100087B01000820
:1000D0007B0100087B0100087B0100087B01000810
:1000E0007B0100087B0100087B0100080000000084
:1000F0000000000000000000000000000000000000
:1001000000000000000000007B0100087B010008E7
:100110007B0100087B0100087B0100087B010008CF
:100120007B0100087B0100087B0100087B010008BF
:100130007B0100087B0100087B0100087B010008AF
:100140007B0100087B0100087B0100087B0100089F
:10015000DFF80CD000F0ACF800480047F543000889
:100160002821002005480047FEE7FEE7FEE7FEE7FE
:10017000FEE7FEE7FEE7FEE7FEE7FEE751010008C7
:100180002DE9F05F0546002092469B4688460646CC
:10019000814640241BE0284641464746224600F05F
:1001A00076F853465A46C01A914110D31146184664
:1001B000224600F05DF82D1A67EB01084F462246F3
:1001C0000120002100F054F817EB00094E41201ED9
:1001D000A4F10104DFDC484631462A464346BDE827
:1001E000F09F10B5431A934209D28318881803E090
:1001F00010F8011D03F8011D521EF9D210BD40EA8E
:1002000001039B0703D009E008C9121F08C0042A94
:10021000FAD203E011F8013B00F8013B521EF9D27B
:1002200010BDD2B201E000F8012B491EFBD270478D
:100230000022F6E710B513460A4604461946FFF7B2
:10024000F0FF204610BD421C10F8011B0029FBD115
:10025000801A704710B54843044604F0F3F80028AC
:1002600005D00021002C02D0641E0155FAE710BD14
:10027000202A04DB203A00FA02F100207047914066
:10028000C2F1200320FA03F3194390407047202A5B
:1002900004DB203A21FA02F00021704721FA02F330
:1002A000D040C2F120029140084319467047000037
:1002B000064C074D06E0E06840F0010394E80700B3
:1002C00098471034AC42F6D3FFF746FF58CD0008EC
:1002D00078CD000800BFFEE77047000008B54FF476
:1002E0000070ADF8000018208DF8030003208DF891
:1002F000020069460A4800F015F84FF48060ADF836
:10030000000004208DF803006946054800F00AF853
:10031000002000F0A5F9012000F0A2F908BD0000BE
:10032000000801402DE9F04102460025002600208A
:1003300000230024002791F803C00CF00F0591F86A
:1003400003C00CF0100CBCF1000F03D091F802C0F8
:100350004CEA050591F800C0BCF1000F31D01468DB
:1003600000202BE04FF0010C0CFA00F3B1F800C0B4
:100370000CEA03069E4220D183004FF00F0C0CFACA
:1003800003F7BC4305FA03FC4CEA040491F803C0EC
:10039000BCF1280F06D14FF0010C0CFA00FCC2F89A
:1003A00014C00AE091F803C0BCF1480F05D14FF02A
:1003B000010C0CFA00FCC2F810C0401C0828D1D374
:1003C0001460B1F800C0BCF1FF0F34DD54680020A8
:1003D0002EE000F1080C4FF0010808FA0CF3B1F818
:1003E00000C00CEA03069E4221D183004FF00F0C9F
:1003F0000CFA03F7BC4305FA03FC4CEA040491F839
:1004000003C0BCF1280F05D100F1080C08FA0CF864
:10041000C2F8148091F803C0BCF1480F07D100F175
:10042000080C4FF0010808FA0CF8C2F81080401CC4
:100430000828CED35460BDE8F08100BFFEE710B5B8
:1004400000F04EF800F00AF8FFF748FF4FF4E130F3
:1004500000F02AFA10BD00BFFEE7704710B54FF458
:10046000E06000F007F800214FF0006000F00CF8A9
:1004700010BD000002490143024A116070470000AC
:100480000000FA050CED00E0024A0A400243024B6C
:100490001A60704780FFFF1F08ED00E07047000002
:1004A00029B1064AD2690243044BDA6104E0034AE7
:1004B000D2698243014BDA617047000000100240AC
:1004C00029B1064A92690243044B9A6104E0034A47
:1004D00092698243014B9A6170470000001002400C
:1004E00010B500F0ABF910BD30B50021002200249A
:1004F00000232D4D6D6805F00C0121B1042905D0B4
:10050000082923D105E0294D056022E0274D05602B
:100510001FE0254D6D6805F47012234D6D6805F4DC
:100520008034022505EB92421CB9214D55430560EC
:100530000BE01D4D6D6805F400351DB11C4D554394
:10054000056002E0194D5543056002E0174D056056
:1005500000BF00BF144D6D6805F0F0010909154D8D
:100560006B5C0568DD4045600F4D6D6805F4E0612A
:10057000090A104D6B5C4568DD4085600A4D6D6869
:1005800005F46051C90A0B4D6B5C4568DD40C560E0
:10059000054D6D6805F44041890B074D6B5CC568DE
:1005A000B5FBF3F5056130BD0010024000127A0082
:1005B00000093D00580000206800002038B50446BE
:1005C0000D46214951F8241041F001000121FFF7A7
:1005D00077FF34B91D4951F824000121FFF770FF5E
:1005E00005E01A4951F824000121FFF759FF184886
:1005F00030F81400ADF8000018208DF80300032037
:100600008DF80200134951F824006946FFF78AFE6D
:10061000114830F81400ADF8000004208DF80300F4
:100620000C4951F824006946FFF77CFE0B4951F84C
:100630002400294600F05AF9084951F82400012104
:1006400000F026F938BD000048CD000840CD000874
:1006500050CD00084C00002054CD0008440000207C
:1006600038B504460B4951F824000121FFF728FF53
:10067000094830F81400ADF8000010208DF8030090
:1006800003208DF80200054951F824006946FFF760
:1006900049FE38BD0CCD000808CD00083000002010
:1006A000034931F81010034A52F8202011617047B5
:1006B00008CD000830000020034931F81010034A2B
:1006C00052F820205161704708CD0008300000200A
:1006D00070B504460D46E9B2074A52F8240000F00E
:1006E00055F900BF044951F82400402100F0F0F80A
:1006F0000028F7D070BD000044000020704710B5FE
:1007000000F002F810BD00000CB500200190009030
:100710003448006840F480303249086000BF3148F6
:10072000006800F4003000900198401C019000988F
:1007300018B90198B0F5A06FF1D12A48006800F40B
:10074000003010B10120009001E0002000900098DE
:10075000012844D12448006840F010002249086074
:100760000846006820F0030008600846006840F072
:10077000020008601B4840681A4948600846406803
:1007800048600846406840F4806048600846406819
:1007900020F47C1048600846406840F4E810486047
:1007A0000846006840F08070086000BF0D4800688F
:1007B00000F000700028F9D00A48406820F00300DB
:1007C000084948600846406840F00200486000BFA1
:1007D0000448406800F00C000828F9D101E000BF8F
:1007E000FEE70CBD001002400020024070470000F0
:1007F0004FF0E020006920F002004FF0E021086196
:100800000A4800680A49B0FBF1F0C0F3C700094983
:1008100008700846007800EB4001C1EBC0104FF6AD
:10082000FF7101EAC000044908807047389600084B
:1008300040420F00540000205600002010B511481F
:10084000006840F001000F490860084640680E4902
:1008500008400C494860084600680C4908400949AE
:1008600008600846006820F4802008600846406858
:1008700020F4FE0048604FF41F008860FFF73FFF40
:1008800010BD0000001002400000FFF8FFFFF6FE60
:1008900021B1828942F40052828104E082894DF6BE
:1008A000FF731A40828170471FB5044600940020F0
:1008B000ADF80400ADF80600ADF80800ADF80C0086
:1008C0000C20ADF80A0069460020FFF777FE1FBD37
:1008D00002460020B1F5007F00D100BF13880B4015
:1008E0000BB1012000E00020704700002DE9F04727
:1008F00086B005460E460024A24600BF00BF002772
:10090000B08900B100BF2F462C8A4CF6FF7004401E
:10091000F08804432C82AC894EF6F3100440B08872
:1009200031890843718908430443AC81AC8A4FF68E
:10093000FF400440B0890443AC8201A8FFF7D4FD16
:100940001148874202D1DDF810A001E0DDF80CA0CB
:100950000AEBCA0000EB0A1031688900B0FBF1F81D
:100960006420B8FBF0F004012009642101FB108928
:10097000322000EB0910B0FBF1F000F00F0004434F
:100980002C8106B0BDE8F08700380140C1F30802B1
:100990008280704700BFFEE70FB4054B10B503A976
:1009A000044A029800F018F810BC5DF814FB00002F
:1009B000814300086C00002002E008C8121F08C133
:1009C000002AFAD170477047002001E001C1121FD0
:1009D000002AFBD1704700002DE9FF4F8DB00F4674
:1009E0000546002606E025280BD0DDE90F129047CA
:1009F0006D1C761C28780028F5D111B03046BDE872
:100A0000F08F0024A246A1460122EC4900E00443F5
:100A100015F8013F203B02FA03F00842F7D128788D
:100A20002A2810D06FF02F022878A0F13001092970
:100A300014D80AEB8A0102EB410144F0020400EBF6
:100A4000010A6D1CF0E701CF5FEA000A03D544F408
:100A50000054CAF1000A44F002046D1C28782E28C4
:100A600017D115F8010F44F004042A280ED06FF0B6
:100A70002F022878A0F1300109290AD809EB890151
:100A800002EB410100EB01096D1CF2E757F8049BF2
:100A90006D1C28786C280FD006DC4C2817D06828ED
:100AA0000DD06A2814D104E0742810D07A280FD110
:100AB0000DE044F400140AE044F4801401E044F42E
:100AC00040146978814202D104F580146D1C6D1CBC
:100AD0002A786E2A1FD00CDC632A31D004DC002A6D
:100AE0008BD0582A11D1A3E0642A68D0692A0CD18E
:100AF00065E0732A2ED004DC6F2A73D0702A04D1EB
:100B00009BE0752A6FD0782A6ED01046DDE90F126F
:100B10009047761C50E1C4F30250022806D0032807
:100B200009D0042801CF09D0066045E101CFF117B3
:100B3000C0E9006140E101CF06803DE106703BE184
:100B400017F8040B8DF8000000208DF80100EB462B
:100B5000012003E057F804BB4FF0FF3061074FF06E
:100B6000000102D40DE008F10101884649450FDA81
:100B70008045F8DB1BF808100029F4D108E008F1E3
:100B8000010188468142FADB1BF808100029F6D1E2
:100B9000DDE90F23AAEB08008146214600F036F973
:100BA000304400EB080604E0DDE90F121BF8010BEE
:100BB0009047B8F10108F7D221464846F7E00A21EC
:100BC000C4F302534FF0000B0891022B04D001CF65
:100BD000C117032B09D00AE0FF1D27F00707F7E82C
:100BE000020108E032E01FE020E000B2C117042B50
:100BF00001D140B2C117031E71F1000307DA4FF0B3
:100C0000000CD0EB0C006CEB01012D2302E023055E
:100C100004D52B238DF82430012303E0E30701D012
:100C20002023F7E7984658E00A2110E010210EE053
:100C300010204FF0000B08900CE010214FF0000B3B
:100C400044F004044FF00809089103E008214FF034
:100C5000000B0891C4F30253022B04D001CF0021F2
:100C6000032B06D006E0FF1D27F00707F7E8020177
:100C700003E080B2042B00D1C0B24FF0000823077C
:100C80002BD5702A07D0DDF820C08CF0100C5CEA60
:100C90000B0C05D00EE040238DF82430012308E032
:100CA00050EA010306D030238DF824308DF825203A
:100CB00002239846DDF820C08CF0080C5CEA0B0C8F
:100CC0000BD150EA010301D1630706D530238DF81B
:100CD00024304FF00108A9F10109582A04D038A2A4
:100CE0000B9208AA0A920BE03AA2F9E75B46089A2F
:100CF000FFF746FA0B9B9B5C0A9A521E0A921370EE
:100D000050EA0102F2D10A98ADEB000000F1200B8D
:100D1000600702D524F4803401E04FF00109D94581
:100D200002DDA9EB0B0000E0002000EB0B014144C9
:100D30000890AAEB010AE00306D4DDE90F2321465F
:100D4000504600F063F806444FF0000908E009A996
:100D500011F80900DDE90F12904709F10109761C2D
:100D6000C145F4DBE0030CD5DDE90F2321465046F5
:100D700000F04CF8064404E0DDE90F123020904703
:100D8000761C0899481E08900029F5DC08E00A98AE
:100D90000A990078491C0A91DDE90F129047761CE8
:100DA000BBF10001ABF1010BF1DC21465046DDE95E
:100DB0000F2300F019F806446D1C1BE609280100FA
:100DC00030313233343536373839616263646566C1
:100DD0000000000030313233343536373839414283
:100DE00043444546000000002DE9F041044600253B
:100DF0001E461746880404D405E039462020B04733
:100E00006D1C641EF9D52846BDE8F0812DE9F0413E
:100E1000044600251E469046C80301D5302700E051
:100E20002027880404D505E041463846B0476D1CAC
:100E3000641EF9D52846BDE8F08110B503680B445F
:100E4000036092F9003004688C4201D2012400E072
:100E5000002423445BB2137010BD70B5134600220A
:100E6000002419E00568154405600568954201D223
:100E7000012500E000252A4605680E683544056016
:100E800005680E68B54201D2012500E000252A441C
:100E9000651CECB2001D091D022CE3D31D6815442E
:100EA0001D6070BD2DE9F74FADF5487D82461646B1
:100EB00000200190B6F5C07F05D96FF037000DF521
:100EC0004B7DBDE8F08F4FF4D07160A8FFF7B0F90B
:100ED00002A803F015FB64AC300E04F8010B300CD3
:100EE00004F8010B300A04F8010B04F8016BE41C50
:100EF000302004F8010B32462046C999FFF771F9FA
:100F00008020A05506F1190B002502E04CA94D5593
:100F10006D1C202DFADB4FF480724CA902A803F05F
:100F2000F9FA019000B159E0002734E060AC0020EC
:100F3000489049904A904B90D9461CE0002506E025
:100F400048A8405D615D484048A948556D1C102D7A
:100F5000F6DB1034B9F1100F01D3102000E0484641
:100F6000A9EB000948AB48AA012102A803F0A0FAA6
:100F7000019000B132E0B9F1000FDFD154A9C819D6
:100F8000102248A9FFF72DF99DF88301401CC0B23B
:100F90008DF883011037302FC8DB4FF4807254A9CD
:100FA00002A803F0B7FA019000B117E00DF5B87888
:100FB000544600270FE043464246012102A803F0B1
:100FC00077FA019000B109E0102241462046FFF770
:100FD00008F910341037302FEDDB00BF02A803F002
:100FE00084FA4FF4D07160A807F046FC302154A871
:100FF00007F042FC20214CA807F03EFC102148A835
:1010000007F03AFC019818B13021504607F034FC43
:10101000019854E710B500220EE003680C682344E1
:10102000036003680C68A34201D2012300E000239F
:101030000B60531CDAB2001D022AEED310BD10B5AE
:10104000024682EA0103541A24EA030001EA030477
:101050002043C00F10BD2DE9F0438DB005460E466C
:1010600001AF4FF00009302101A8FFF7E1F8C846B1
:101070001BE0102408E0601E285C401CC1B2601E0A
:10108000295401B102E0641E002CF4DC00BF3B4691
:101090002A46012105F1200003F00AFAB0F1000907
:1010A00000D020E0103708F11008B8F1300FE0DB75
:1010B000002406E001A8005D315D484001A9085503
:1010C000641C302CF6DB4FF4807201A905F120007E
:1010D00003F020FAB0F1000900D004E009A80FC81D
:1010E00085E80F0000BF302101A807F0C5FB484686
:1010F0000DB0BDE8F08300000146104A12884A4353
:101100004FF0E0235A6100229A6101221A6100BF68
:101110004FF0E022106900F001021AB100F48032B1
:10112000002AF5D04FF0E022126922F001024FF0C0
:10113000E0231A6100229A617047000056000020E7
:101140002DE9F041074688461546394610A0FFF7BD
:1011500023FC002418E02646E01704EB1070001171
:10116000A4EB001008B90BA000E00CA00146681E1B
:10117000A04201D10AA000E00AA0034618F804200A
:1011800009A0FFF709FC641CAC42E4D3BDE8F08180
:10119000257300000D0A20202020200020000000E0
:1011A0000D0A000000000000257325303258257319
:1011B000000000002DE9F04F8DB007460C461546A3
:1011C0001E46DDE9179ADDF858806FF06D0B04A814
:1011D00004F037F800BF2B46324604A938468DE8A4
:1011E000000703F0C7FFB0F1000B00D012E000BF12
:1011F00004A803F0B1FF10B1DFF828B00AE000BF87
:1012000004A9204606F064F8B0F1000B00D001E01C
:1012100000BF00BF04A804F003F858460DB0BDE8B5
:10122000F08F000080B0FFFF2DE9FE4F05460E460F
:1012300090461C46DDE90C796FF06D0A00BF3B4615
:1012400022463146284603F0ADFCB0F1000A00D03A
:1012500010E000BF00BF05F1280332464146284692
:101260008DE8900203F086FFB0F1000A00D001E0A3
:1012700000BF00BF5046BDE8FE8F000070B594B0BF
:10128000002477A5794806F096FB794806F093FB91
:10129000784806F090FB784806F08DFB774803F01D
:1012A0006CFD774803F0CDFF764803F0CAFF76481F
:1012B00004F045F9754803F04BFA2846FEF7C3FFE2
:1012C00006462B46704A72490090704803F052FB64
:1012D00070A0FFF761FB0321684803F073FD04462B
:1012E00072A0FFF759FB69487A4B654A5F49009045
:1012F000624803F09DFB044600BF2CB16242B52159
:1013000075A0FFF749FB8EE000BF412002A913AB97
:101310000022CDE900105A49584803F0A3FF02A962
:101320007AA0139AFFF70CFF58486A4B554A504968
:101330000090524803F07CFB044600BF2CB162428F
:10134000BF2165A0FFF728FB6DE000BF412002A987
:1013500013AB0022CDE900104A49484803F082FF50
:1013600002A975A0139AFFF7EBFE484859493F4B75
:10137000444ACDE900103F49404803F03DFB044694
:1013800000BF2CB16242C92153A0FFF705FB4AE020
:1013900000BF384807F00EF90646324602A9354824
:1013A00007F0ECF9334807F005F90646324602A982
:1013B0006CA0FFF7C5FE354846492D4B304ACDE9B4
:1013C00000102D492D4803F017FB044600BF2CB137
:1013D0006242D42140A0FFF7DFFA24E000BF264894
:1013E00007F0E8F80646324602A9234807F0C6F996
:1013F000214807F0DFF80646324602A962A0FFF74F
:101400009FFE1D491B4805F009FF044600BF2CB193
:101410006242DB2130A0FFF7BFFA04E000BF63A007
:10142000FFF7BAFA00BF114806F0B7F9104806F006
:10143000B4F9104806F0B1F90F4806F0AEF90F48BC
:1014400003F069FC0E4803F0EBFE0E4803F0E8FEE3
:101450000D4803F0BDFF0D4803F06BF914B070BDEB
:1014600073696D706C655F65636468000C010020D2
:1014700018010020F4000020000100207800002066
:10148000240100204801002070010020E803002012
:10149000F553000820202E20736574757020726E3D
:1014A00067202E2E2E206F6B0D0A000020202E208C
:1014B00073656C656374206563702067726F757007
:1014C00020534543503235365231202E2E2E206F78
:1014D0006B0D0A00674700082020212E20617373DE
:1014E0006572743A206661696C6564205B6C696E34
:1014F000653A2025642C206572726F723A202D3077
:1015000078253034585D0D0A000000002020312E6F
:10151000206563646820636C69656E742067656E1E
:101520006572617465207075626C696320706172A8
:10153000616D657465723A002020322E2065636407
:1015400068207365727665722067656E6572617476
:1015500065207075626C696320706172616D65747D
:1015600065723A002020332E206563646820636C26
:1015700069656E742067656E657261746520736558
:10158000637265743A0000002020342E2065636485
:1015900068207365727665722067656E6572617426
:1015A00065207365637265743A0000002020352E53
:1015B000206563646820636865636B696E67207388
:1015C000656372657473202E2E2E206F6B0D0A00DA
:1015D0002DE9F04196B007460E4614461D466FF0C1
:1015E0006D08B9480068401CB7490860002104F143
:1015F000180005F0F7FD30B92946304603F0A6FA89
:1016000016B0BDE8F081286A50B1002105F118003C
:1016100005F0E8FD20B92146304603F097FAEFE7E0
:10162000286A38B1012105F1180005F0DBFD08B189
:10163000A648E5E713A806F0BEF910A806F0BBF926
:101640000DA806F0B8F90AA806F0B5F907A806F043
:10165000B2F904A806F0AFF901A806F0ACF900BF92
:1016600004F118031A4613A9384606F03FFCB0F1FE
:10167000000800D011E100BF00BF04F1180313AA55
:1016800010A9384606F032FCB0F1000800D004E1A1
:1016900000BF00BF2B4613AA13A9384606F026FC4C
:1016A000B0F1000800D0F8E000BF00BF05F10C0366
:1016B00010AA10A9384606F019FCB0F1000800D0B5
:1016C000EBE000BF00BF234613AA13A9384606F07B
:1016D000E7FFB0F1000800D0DFE000BF00BF04F179
:1016E0000C0310AA10A9384606F0DAFFB0F1000882
:1016F00000D0D2E000BF002113A805F073FD80B92F
:10170000002110A805F06EFD30B92246314638465A
:1017100000F052FB8046C0E0304603F033FE8046C6
:10172000BBE000BF13AB04F1180201A9384606F074
:10173000DDFBB0F1000800D0AFE000BF00BF13AB8D
:1017400013AA0DA9384606F0D1FBB0F1000800D06D
:10175000A3E000BF00BF13AB0DAA0AA9384606F0EC
:10176000C5FBB0F1000800D097E000BF00BF2346E2
:101770000DAA0DA9384606F0B9FBB0F1000800D05B
:101780008BE000BF00BF0DA913A805F0A1FDB0F1CB
:10179000000800D081E000BF00BF012213A9384635
:1017A00006F04DFEB0F1000800D076E000BF00BFAB
:1017B00010AB10AA07A9384606F098FBB0F1000854
:1017C00000D06AE000BF00BF13AB07AA07A93846E4
:1017D00006F066FFB0F1000800D05EE000BF00BF79
:1017E0000AAB07AA07A9384606F05AFFB0F100086D
:1017F00000D052E000BF00BF07AB0DAA0DA93846CC
:1018000006F04EFFB0F1000800D046E000BF00BF78
:1018100010AB0DAA0DA9384606F068FBB0F1000820
:1018200000D03AE000BF00BF04F10C030AAA0AA9E5
:10183000384606F05BFBB0F1000800D02DE000BF99
:1018400000BF0AAB0DAA04A9384606F029FFB0F183
:10185000000800D021E000BF00BF07A9304605F016
:1018600037FDB0F1000800D017E000BF00BF04A9A9
:1018700006F10C0005F02CFDB0F1000800D00CE0E2
:1018800000BF00BF01A906F1180005F021FDB0F16D
:10189000000800D001E000BF00BF13A805F07DFFE5
:1018A00010A805F07AFF0DA805F077FF0AA805F04B
:1018B00074FF07A805F071FF04A805F06EFF01A8EA
:1018C00005F06BFF40469BE60000002080B0FFFF64
:1018D00070B504460D46284606F06CFEE16DC91D44
:1018E000B0EBD10F01D9024870BD0020FCE7000029
:1018F00080B3FFFF70B586B005460C466FF06D06ED
:101900000021204605F06EFC002813DB002104F1C5
:101910000C0005F067FC00280CDB291D204605F0B3
:101920007DFC002806DA291D04F10C0005F076FC88
:10193000002802DB394806B070BD03A806F03BF86A
:10194000684606F038F800BF04F10C031A4603A9F4
:10195000284606F0CBFA061E00D056E000BF00BFB6
:10196000234622466946284606F0C0FA061E00D0E5
:101970004BE000BFA869F0B900BF03226946684682
:1019800006F06EFE061E00D03FE000BF09E000BF7B
:101990002A1D6946684605F07EFB061E00D034E02D
:1019A00000BF0098002812DA0021684605F01AFCF2
:1019B0000028ECD10BE000BF05F110036A46694630
:1019C000284605F03FFB061E00D01EE000BF00BF0A
:1019D00023466A466946284606F088FA061E00D065
:1019E00013E000BF00BF05F11C036A4669462846A4
:1019F00005F028FB061E00D007E000BF694603A8DB
:101A000005F00CFC00B1054E00BF03A805F0C5FEB3
:101A1000684605F0C2FE30468DE7000080B3FFFF48
:101A20002DE9FF5F05460E469346711C2846FEF7DA
:101A3000FFFB00240EE0002709E006FB07410398A6
:101A400005F07BFFB840295D084328557F1C5F45A2
:101A5000F3D3641CB442EED34FF00008012422E01B
:101A6000285D00EA080A285D80EA08002855D0466B
:101A7000285D00F00100C0F10109285D611E695C6C
:101A800001FB09F1084040EA0808285D611E695C15
:101A900001FB09F148402855601E285C40EAC91046
:101AA000611E6854641CB442DAD9BDE8FF9F00008F
:101AB0002DE9F04786B004460D4616461F46DDE97F
:101AC0000E986FF06D0A03A805F075FF684605F0E3
:101AD00072FF002104F14C0005F02FFF012803D014
:101AE0001F4806B0BDE8F0870021284605F025FF15
:101AF00008B9012000E0002088F8000000BF294656
:101B000003A805F0E5FBB0F1000A00D01FE000BF1C
:101B100000BF2A4604F14C01684606F0EDFDB0F125
:101B2000000A00D013E000BF00BF98F8002069460B
:101B300003A806F042FBB0F1000A00D007E000BFA6
:101B400003AB4A4639463046FFF76AFF00BF684696
:101B500005F023FE03A805F020FE5046C1E7000073
:101B600080B0FFFF2DE9F0479CB080460D4614463B
:101B70001E46DDE924796FF06D0A19A805F01BFFF8
:101B800016A805F018FF13A805F015FF10A805F01A
:101B900012FF0DA805F00FFF0AA805F00CFF07A81B
:101BA00005F009FF04A805F006FF01A805F003FFF2
:101BB00000BF06F11803324619A9404605F042FA63
:101BC000B0F1000A00D0D7E000BF00BF19AB19AADE
:101BD00016A9404606F08AF9B0F1000A00D0CBE021
:101BE00000BF00BF06F11803324613A9404606F0B5
:101BF00057FDB0F1000A00D0BEE000BF00BF13AB3C
:101C000013AA10A9404606F071F9B0F1000A00D0FD
:101C1000B2E000BF00BF10AB16AA0DA9404606F007
:101C20003FFDB0F1000A00D0A6E000BF00BF07F101
:101C300018033A460AA9404605F004FAB0F1000A32
:101C400000D099E000BF00BF07F118033A4607A98A
:101C5000404606F025FDB0F1000A00D08CE000BF40
:101C600000BF19AB07AA04A9404606F03FF9B0F13E
:101C7000000A00D080E000BF00BF13AB0AAA01A990
:101C8000404606F033F9B0F1000A00D074E000BF1E
:101C900000BF01AB04AA2146404605F0D3F9B0F1DC
:101CA000000A00D068E000BF00BF2346224621465C
:101CB000404606F01BF9B0F1000A00D05CE000BF1E
:101CC00000BF01AB04AA04F11801404606F0E8FC8D
:101CD000B0F1000A00D04FE000BF00BF04F11803CC
:101CE0001A461146404606F001F9B0F1000A00D04C
:101CF00042E000BF00BF04F118034A4619464046BF
:101D000006F0F4F8B0F1000A00D035E000BF00BFE3
:101D100010AB16AA2946404606F0E8F8B0F1000AD2
:101D200000D029E000BF00BF0DAB08F1100205F1A3
:101D30001801404606F0DAF8B0F1000A00D01BE0C6
:101D400000BF00BF05F1180310AA1946404605F070
:101D500079F9B0F1000A00D00EE000BF00BF05F134
:101D600018030DAA1946404606F0C0F8B0F1000A63
:101D700000D001E000BF00BF19A805F00EFD16A8B5
:101D800005F00BFD13A805F008FD10A805F005FDF2
:101D90000DA805F002FD0AA805F0FFFC07A805F054
:101DA000FCFC04A805F0F9FC01A805F0F6FC50467F
:101DB0001CB0BDE8F0870000F0B58DB005460E46BA
:101DC00014466FF06D07BE480068401CBC490860AF
:101DD0000AA805F0F0FD07A805F0EDFD04A805F040
:101DE000EAFD01A805F0E7FDA869002848D100BF79
:101DF00004F118031A4607A9284606F077F8071ECB
:101E000000D04EE100BF00BF07AB224604A9284620
:101E100005F018F9071E00D043E100BF00BF07AB73
:101E2000224601A9284606F03BFC071E00D038E1F7
:101E300000BF00BF01AB04AA07A9284606F056F868
:101E4000071E00D02DE100BF00BF032207A90AA88A
:101E500006F037F8071E00D023E100BF09E000BFFD
:101E60002A1D0AA90AA806F0ADFB071E00D018E13A
:101E700000BF291D0AA805F0D1F90028EFDA59E0C2
:101E800000BF2346224607A9284606F02FF8071E62
:101E900000D006E100BF00BF032207A90AA806F090
:101EA00010F8071E00D0FCE000BF09E000BF2A1DAB
:101EB0000AA90AA806F086FB071E00D0F1E000BFC1
:101EC000291D0AA805F0AAF90028EFDA002105F17A
:101ED000100005F087F968B300BF04F118031A4633
:101EE00007A9284606F002F8071E00D0D9E000BF77
:101EF00000BF07AB07AA04A9284605F0F7FF071E95
:101F000000D0CEE000BF00BF05F1100304AA07A96E
:101F1000284605F0EBFF071E00D0C2E000BF00BF5F
:101F200007AB0AAA0AA9284605F08CF8071E00D0BC
:101F3000B7E000BF00BF04F10C031A4604A928460D
:101F400005F0D4FF071E00D0ABE000BF00BF0122A8
:101F500004A9284606F073FA071E00D0A1E000BFCE
:101F600000BF04AB224607A9284605F0BFFF071EA5
:101F700000D096E000BF00BF012207A9284606F066
:101F80005EFA071E00D08CE000BF00BF04AB04AABD
:101F900001A9284605F0AAFF071E00D081E000BF76
:101FA00000BF012201A9284606F049FA071E00D009
:101FB00077E000BF00BF0AAB0AAA04A9284605F0D3
:101FC00095FF071E00D06CE000BF00BF07AB04AA5E
:101FD00004A9284606F064FB071E00D061E000BF9C
:101FE00000BF07AB04AA04A9284606F059FB071E48
:101FF00000D056E000BF00BF04AB07AA07A92846DF
:1020000006F04EFB071E00D04BE000BF00BF0AAB3E
:1020100007AA07A9284605F069FF071E00D040E07F
:1020200000BF00BF01AB07AA07A9284606F038FB8E
:10203000071E00D035E000BF00BF04F1180304F113
:102040000C0201A9284605F051FF071E00D028E028
:1020500000BF00BF012201A9284606F0F0F9071EC3
:1020600000D01EE000BF00BF04A9304605F030F9E3
:10207000071E00D015E000BF00BF07A906F10C0045
:1020800005F026F9071E00D00BE000BF00BF01A934
:1020900006F1180005F01CF9071E00D001E000BF92
:1020A00000BF0AA805F079FB07A805F076FB04A895
:1020B00005F073FB01A805F070FB38460DB0F0BDCC
:1020C000040000202DE9F05F04460E4617461D4629
:1020D000DDE90CABDDE90A893A463146201D01F005
:1020E0009DF92DB14246294604F1100001F096F900
:1020F0005246494604F11C0001F090F904F14C00ED
:10210000DDE9111201F08AF9594604F128000E9A0E
:1021100001F084F904F13400DDE90F1201F07EF9D9
:1021200004F140000121016041600849816000BF65
:10213000201D04F0F2FFA06504F14C0004F0EDFF57
:10214000E065012020660020BDE8F09F100000201F
:102150002DE9F04F91B005468A4614461E46DDE94A
:102160001A986FF06D0B6868A04203D2002011B07E
:10217000BDE8F08F01200B90CDF834A002200C9028
:1021800001200E90CDF840D0A11B6868401A0F9036
:10219000A1190F98884201D9A0190F902C216846E7
:1021A000FEF746F8A86800EB8400A0EB86010F98C4
:1021B00082006846FEF715F8B9F1000F09D000BF9C
:1021C00049460EA806F060F9B0F1000B00D088E097
:1021D00000BF0C990F9808440F90B8F1000F09D078
:1021E000601EA96851F8200000EA08000A46611E36
:1021F00042F82100274604E00020A96841F82700A2
:102200007F1C6868B842F7D800BF0BAA0EA90EA8B9
:1022100005F096FEB0F1000B00D062E000BF00BFF9
:102220000EAA2946284604F06BFEB0F1000B00D040
:1022300057E000BFA11B6868401A0F90A1190F98C2
:10224000884201D9A0190F902C216846FDF7F0FFB4
:10225000A86800EB8400A0EB86010F988200684616
:10226000FDF7BFFFB9F1000F09D000BF49460EA826
:1022700006F00AF9B0F1000B00D032E000BF0C9973
:102280000F9808440F90B8F1000F09D0601EA9689C
:1022900051F8200000EA08000A46611E42F82100B9
:1022A000274604E00020A96841F827007F1C6868E1
:1022B000B842F7D800BF0BAA0EA90EA805F040FE41
:1022C000B0F1000B00D00CE000BF00BF0EAA294601
:1022D000284604F015FEB0F1000B00D001E000BF6D
:1022E00000BF584643E7F8B504466FF06D0700207D
:1022F000009000BF0C21204605F032FB071E00D0E5
:102300004AE000BFA568606805EB8006A06800F1A0
:1023100018016A462846FEF7A0FDA06800F12801D2
:102320006A462846FEF799FD083569462846FEF7B5
:1023300071FEA06800F118016A462846FEF78DFD7F
:10234000A06800F120016A462846FEF786FDA068D5
:1023500000F128016A462846FEF77FFD08356946E8
:102360002846FEF757FEA06800F120016A4628467D
:10237000FEF773FDA06800F128016A462846FEF7C3
:102380006CFD08350098286001E000202860281DB9
:102390000546B042F9D300BF3846F8BD1CB5044627
:1023A0000020009003460622024901902046FFF7D4
:1023B000CFFE1CBD140000202DE9F0418EB0044674
:1023C0006FF06D0700200D9000254FF0E008012010
:1023D000099008200A9001A80B900A98810001A892
:1023E000FDF726FF00BF0E21204605F0B9FA071EB3
:1023F00000D030E100BFA06850F825000C90A06824
:102400000DAAC1690CA807F007F9A0680DAAC16A56
:102410000CA807F001F90C98A16841F825006D1C83
:10242000A06850F825000C909DF9346000200D90B4
:10243000002E05DA0DAA71420CA807F0EDF804E0B1
:102440000DAA31460CA8FEF7F8FCA0680DAA016A97
:102450000CA807F0E1F8A0680DAA016B0CA807F022
:10246000DBF80C98A16841F825006D1CA06850F8B5
:1024700025000C909DF9346000200D90002E05DAA7
:102480000DAA71420CA807F0C7F804E00DAA314666
:102490000CA8FEF7D2FCA0680DAA416A0CA807F0B0
:1024A000BBF8A0680DAA416B0CA807F0B5F80C9812
:1024B000A16841F825006D1CA06850F825000C901B
:1024C0009DF9346000200D90002E05DA0DAA7142AE
:1024D0000CA807F0A1F804E00DAA31460CA8FEF7FD
:1024E000ACFCA0680DAA816A0CA807F095F8A0685A
:1024F0000DAAC1690CA8FEF7A0FCA0680DAAC16ACC
:102500000CA8FEF79AFC0C98A16841F825006D1CF8
:10251000A06850F825000C909DF9346000200D90C3
:10252000002E05DA0DAA71420CA807F075F804E038
:102530000DAA31460CA8FEF780FCA0680DAAC16A5E
:102540000CA807F069F8A0680DAA016A0CA8FEF7AC
:1025500074FCA0680DAA016B0CA8FEF76EFC0C9829
:10256000A16841F825006D1CA06850F825000C906A
:102570009DF9346000200D90002E05DA0DAA7142FD
:102580000CA807F049F804E00DAA31460CA8FEF7A4
:1025900054FCA0680DAA016B0CA807F03DF8A068D8
:1025A0000DAA416A0CA8FEF748FCA0680DAA416B71
:1025B0000CA8FEF742FC0C98A16841F825006D1CA0
:1025C000A06850F825000C909DF9346000200D9013
:1025D000002E05DA0DAA71420CA807F01DF804E0E0
:1025E0000DAA31460CA8FEF728FCA0680DAA416B85
:1025F0000CA807F011F8A0680DAA816A0CA8FEF7D4
:102600001CFC0C98A16841F825006D1C9DF9340054
:10261000002802DD9DF9340000E000200C900C98A9
:10262000A16841F8250000200C9003E00C98A168F7
:1026300041F82500681C054661688842F6D39DF97B
:102640003400002806DA434609AA9DF934102046D2
:1026500001F077FE00BF38460EB0BDE8F081000003
:102660001CB5044600200090034607220249019051
:102670002046FFF76DFD1CBD1C00002070B58EB01C
:1026800004466FF06D066068082802D200200EB084
:1026900070BD01200B906068C01F0C900C98092839
:1026A00001D92348F3E701A80D902821FDF7C0FDCB
:1026B0000C988200A06800F11C0101A8FDF791FDB3
:1026C00000BF1F210BA805F0DFFE061E00D02CE086
:1026D00000BF0C98401C0C9000BF0022FF21204638
:1026E00005F00EFE061E00D01FE000BF082504E026
:1026F0000020A16841F825006D1C6068A842F7D849
:1027000000BF13220BA90BA805F0DBFB061E00D0AF
:102710000BE000BF00BF0BAA2146204604F0F0FBEF
:10272000061E00D001E000BF00BF3046AFE700004A
:1027300080B0FFFF2DE9F0418EB004466FF06D07C9
:1027400000200D9000254FF4807801200990092089
:102750000A90CDF82CD00A9881006846FDF768FDF4
:1027600000BF1021204605F0FBF8071E00D02EE226
:1027700000BFA06850F825000C90A0680DAA016A5F
:102780000CA8FEF75AFBA0680DAA416A0CA8FEF738
:1027900054FBA0680DAAC16A0CA806F03DFFA06812
:1027A0000DAA016B0CA806F037FFA0680DAA416BBB
:1027B0000CA806F031FFA0680DAA816B0CA806F0EA
:1027C0002BFF0C98A16841F825006D1CA06850F8FB
:1027D00025000C909DF9346000200D90002E05DA44
:1027E0000DAA71420CA806F017FF04E00DAA3146AD
:1027F0000CA8FEF722FBA0680DAA416A0CA8FEF700
:102800001CFBA0680DAA816A0CA8FEF716FBA06845
:102810000DAA016B0CA806F0FFFEA0680DAA416B83
:102820000CA806F0F9FEA0680DAA816B0CA806F0B2
:10283000F3FEA0680DAAC16B0CA806F0EDFE0C9883
:10284000A16841F825006D1CA06850F825000C9087
:102850009DF9346000200D90002E05DA0DAA71421A
:102860000CA806F0D9FE04E00DAA31460CA8FEF72C
:10287000E4FAA0680DAA816A0CA8FEF7DEFAA06847
:102880000DAAC16A0CA8FEF7D8FAA0680DAA416B80
:102890000CA806F0C1FEA0680DAA816B0CA806F07A
:1028A000BBFEA0680DAAC16B0CA806F0B5FE0C9883
:1028B000A16841F825006D1CA06850F825000C9017
:1028C0009DF9346000200D90002E05DA0DAA7142AA
:1028D0000CA806F0A1FE04E00DAA31460CA8FEF7F4
:1028E000ACFAA0680DAAC16A0CA8FEF7A6FAA06807
:1028F0000DAAC16A0CA8FEF7A0FAA0680DAA016B88
:102900000CA8FEF79AFAA0680DAA016B0CA8FEF7B6
:1029100094FAA0680DAA416B0CA8FEF78EFAA06885
:102920000DAAC16B0CA806F077FEA0680DAA016A7B
:102930000CA806F071FEA0680DAA416A0CA806F06A
:102940006BFE0C98A16841F825006D1CA06850F83A
:1029500025000C909DF9346000200D90002E05DAC2
:102960000DAA71420CA806F057FE04E00DAA3146EC
:102970000CA8FEF762FAA0680DAA016B0CA8FEF77E
:102980005CFAA0680DAA016B0CA8FEF756FAA068C5
:102990000DAA416B0CA8FEF750FAA0680DAA416B76
:1029A0000CA8FEF74AFAA0680DAA816B0CA8FEF7E6
:1029B00044FAA0680DAA416A0CA806F02DFEA06892
:1029C0000DAA816A0CA806F027FE0C98A16841F8B0
:1029D00025006D1CA06850F825000C909DF934600E
:1029E00000200D90002E05DA0DAA71420CA806F009
:1029F00013FE04E00DAA31460CA8FEF71EFAA068EB
:102A00000DAA416B0CA8FEF718FAA0680DAA416B3D
:102A10000CA8FEF712FAA0680DAA816B0CA8FEF7AD
:102A20000CFAA0680DAA816B0CA8FEF706FAA06844
:102A30000DAAC16B0CA8FEF700FAA0680DAA816A66
:102A40000CA806F0E9FDA0680DAAC16A0CA806F062
:102A5000E3FD0C98A16841F825006D1CA06850F8B2
:102A600025000C909DF9346000200D90002E05DAB1
:102A70000DAA71420CA806F0CFFD04E00DAA314664
:102A80000CA8FEF7DAF9A0680DAA816B0CA8FEF776
:102A9000D4F9A0680DAA816B0CA8FEF7CEF9A06846
:102AA0000DAAC16B0CA8FEF7C8F9A0680DAAC16BEE
:102AB0000CA8FEF7C2F9A0680DAA816B0CA8FEF75E
:102AC000BCF9A0680DAA416B0CA8FEF7B6F9A06886
:102AD0000DAA016A0CA806F09FFDA0680DAA416A24
:102AE0000CA806F099FD0C98A16841F825006D1C12
:102AF000A06850F825000C909DF9346000200D90DE
:102B0000002E05DA0DAA71420CA806F085FD04E03E
:102B10000DAA31460CA8FEF790F9A0680DAAC16B6A
:102B20000CA8FEF78AF9A0680DAAC16B0CA8FEF7E5
:102B300084F9A0680DAAC16B0CA8FEF77EF9A06805
:102B40000DAA016A0CA8FEF778F9A0680DAA816A9F
:102B50000CA806F061FDA0680DAAC16A0CA806F0D9
:102B60005BFDA0680DAA016B0CA806F055FDA068DE
:102B70000DAA416B0CA806F04FFD0C98A16841F816
:102B800025006D1C9DF93400002802DD9DF93400FC
:102B900000E000200C900C98A16841F8250000206E
:102BA0000C9003E00C98A16841F82500681C0546CC
:102BB00061688842F6D39DF93400002806DA43465E
:102BC00009AA9DF93410204601F0BBFB00BF38462E
:102BD0000EB0BDE8F08100001CB504460020009056
:102BE00003460822024901902046FFF7B1FA1CBDB6
:102BF000240000202DE9F04192B004466FF06D07EB
:102C00000020119000254FF4C07801200D900D2078
:102C10000E90CDF83CD00E9881006846FDF708FB79
:102C200000BF1821204604F09BFE071E00D0D8E20A
:102C300000BFA06850F825001090A06811AA016B91
:102C400010A8FEF7FAF8A06811AA416D10A8FEF7C7
:102C5000F4F8A06811AA016D10A8FEF7EEF8A068BC
:102C600011AAC16D10A806F0D7FC1098A16841F810
:102C700025006D1CA06850F8250010909DF9446057
:102C800000201190002E05DA11AA714210A806F05A
:102C9000C3FC04E011AA314610A8FEF7CEF8A068E4
:102CA00011AA416B10A8FEF7C8F8A06811AA816D9F
:102CB00010A8FEF7C2F8A06811AAC16D10A8FEF70F
:102CC000BCF8A06811AA016B10A806F0A5FCA068CA
:102CD00011AA016D10A806F09FFC1098A16841F898
:102CE00025006D1CA06850F8250010909DF94460E7
:102CF00000201190002E05DA11AA714210A806F0EA
:102D00008BFC04E011AA314610A8FEF796F8A068E3
:102D100011AA816B10A8FEF790F8A06811AAC16DE6
:102D200010A8FEF78AF8A06811AA416B10A806F057
:102D300073FCA06811AA416D10A806F06DFC1098F4
:102D4000A16841F825006D1CA06850F8250010907E
:102D50009DF9446000201190002E05DA11AA7142FD
:102D600010A806F059FC04E011AA314610A8FEF79D
:102D700064F8A06811AAC16B10A8FEF75EF8A068FD
:102D800011AA016B10A8FEF758F8A06811AA016DEE
:102D900010A8FEF752F8A06811AA416D10A8FEF71E
:102DA0004CF8A06811AA816B10A806F035FCA06849
:102DB00011AA816D10A806F02FFCA06811AAC16DA0
:102DC00010A806F029FC1098A16841F825006D1C98
:102DD000A06850F8250010909DF9446000201190E3
:102DE000002E05DA11AA714210A806F015FC04E0C5
:102DF00011AA314610A8FEF720F8A06811AA416D6B
:102E000010A8FEF71AF8A06811AA416D10A8FEF7E5
:102E100014F8A06811AA016C10A8FEF70EF8A068BB
:102E200011AA416B10A8FEF708F8A06811AA016B5F
:102E300010A8FEF702F8A06811AA016D10A8FDF70E
:102E4000FCFFA06811AA816D10A8FDF7F6FFA0682D
:102E500011AAC16B10A806F0DFFBA06811AAC16D12
:102E600010A806F0D9FBA06811AAC16D10A806F041
:102E7000D3FB1098A16841F825006D1CA06850F89C
:102E8000250010909DF9446000201190002E05DA75
:102E900011AA714210A806F0BFFB04E011AA314646
:102EA00010A8FDF7CAFFA06811AA816D10A8FDF750
:102EB000C4FFA06811AA816D10A8FDF7BEFFA0682D
:102EC00011AA416C10A8FDF7B8FFA06811AA816B88
:102ED00010A8FDF7B2FFA06811AA416B10A8FDF77A
:102EE000ACFFA06811AA416D10A8FDF7A6FFA0686D
:102EF00011AAC16D10A8FDF7A0FFA06811AA016C6E
:102F000010A806F089FB1098A16841F825006D1CF7
:102F1000A06850F8250010909DF9446000201190A1
:102F2000002E05DA11AA714210A806F075FB04E024
:102F300011AA314610A8FDF780FFA06811AAC16D43
:102F400010A8FDF77AFFA06811AAC16D10A8FDF7BF
:102F500074FFA06811AA816C10A8FDF76EFFA0682D
:102F600011AAC16B10A8FDF768FFA06811AA816BB8
:102F700010A8FDF762FFA06811AA816D10A8FDF7E7
:102F80005CFFA06811AA416C10A806F045FB1098E0
:102F9000A16841F825006D1CA06850F8250010902C
:102FA0009DF9446000201190002E05DA11AA7142AB
:102FB00010A806F031FB04E011AA314610A8FDF775
:102FC0003CFFA06811AAC16C10A8FDF736FFA068ED
:102FD00011AA016C10A8FDF730FFA06811AAC16BFF
:102FE00010A8FDF72AFFA06811AAC16D10A8FDF76F
:102FF00024FFA06811AA816C10A806F00DFB1098A0
:10300000A16841F825006D1CA06850F825001090BB
:103010009DF9446000201190002E05DA11AA71423A
:1030200010A806F0F9FA04E011AA314610A8FDF73D
:1030300004FFA06811AA016D10A8FDF7FEFEA068AC
:1030400011AA416C10A8FDF7F8FEA06811AA016C46
:1030500010A8FDF7F2FEA06811AAC16C10A806F036
:10306000DBFA1098A16841F825006D1CA06850F8A3
:10307000250010909DF9446000201190002E05DA83
:1030800011AA714210A806F0C7FA04E011AA31464D
:1030900010A8FDF7D2FEA06811AA416D10A8FDF797
:1030A000CCFEA06811AA816C10A8FDF7C6FEA0682E
:1030B00011AA416C10A8FDF7C0FEA06811AA016D0D
:1030C00010A806F0A9FA1098A16841F825006D1C17
:1030D000A06850F8250010909DF9446000201190E0
:1030E000002E05DA11AA714210A806F095FA04E044
:1030F00011AA314610A8FDF7A0FEA06811AA816DA3
:1031000010A8FDF79AFEA06811AAC16C10A8FDF7DF
:1031100094FEA06811AA816C10A8FDF78EFEA0682D
:1031200011AA416D10A806F077FA1098A16841F82D
:1031300025006D1CA06850F8250010909DF9446092
:1031400000201190002E05DA11AA714210A806F095
:1031500063FA04E011AA314610A8FDF76EFEA068DC
:1031600011AAC16D10A8FDF768FEA06811AA016D33
:1031700010A8FDF762FEA06811AAC16C10A8FDF7A7
:103180005CFEA06811AA816D10A806F045FA10989F
:10319000A16841F825006D1C9DF94400002802DD5E
:1031A0009DF9440000E0002010901098A16841F8BB
:1031B00025000020109003E01098A16841F8250038
:1031C000681C054661688842F6D39DF944000028D2
:1031D00006DA43460DAA9DF94410204601F0B1F8E5
:1031E00000BF384612B0BDE8F081000070B5A4B051
:1031F00004466FF06D0660680E2802D8002024B0E7
:1032000070BD0120219060680E38229022980E280F
:1032100001D93648F3E70FA823903C21FDF708F8C1
:1032200022988200A06800F138010FA8FCF7D9FFAE
:103230000E2504E00020A16841F825006D1C60689F
:10324000A842F7D800BF21AA2146204603F023FF59
:10325000061E00D047E000BF21A807C81EAB07C369
:1032600001A8209038220FA9FCF7BBFF00BFE02186
:103270001EA805F009F9061E00D034E000BF00BF0B
:103280001EAA2146204603F006FF061E00D02AE0B3
:1032900000BF072504E000200FA941F825006D1CA0
:1032A0002298A842F7D800BF1EAA21A921A803F09E
:1032B000F2FE061E00D016E000BF0F20229000BFD5
:1032C000E02121A805F056F8061E00D00BE000BF53
:1032D00000BF21AA2146204603F0DDFE061E00D0D5
:1032E00001E000BF00BF304689E7000080B0FFFF6B
:1032F00070B596B004466FF06D066068112802D272
:10330000002016B070BD0120139060681038149032
:103310001498122801D91220149001A8159014981D
:103320008200A06800F1400101A8FCF75AFF00BF2D
:10333000092113A805F0A8F8061E00D01CE000BF64
:10334000A068B0F84000C0F30800A1680864112527
:1033500004E00020A16841F825006D1C6068A842C7
:10336000F7D800BF13AA2146204603F0C9FD061E68
:1033700000D001E000BF00BF3046C2E770B505468F
:103380000C466FF06D06606E28B9221D294628464E
:1033900004F050FD70BD2868002804DA002128469A
:1033A00003F020FF30B9284603F0B7FEA16D4900B5
:1033B000884201D91848EDE700BF2846616E88476A
:1033C000061E00D026E000BF09E000BF221D2946EE
:1033D000284603F060FE061E00D01BE000BF2868F0
:1033E000002805DA0021284603F0FCFE0028ECD175
:1033F00009E000BF221D2946284605F0E3F8061E15
:1034000000D007E000BF211D284603F007FF002879
:10341000EFDA00BF3046BDE780B0FFFF0123036055
:1034200093084360816070472DE9FF4F89B00546DE
:1034300099466FF06D00089005F1340109F10C0018
:1034400003F0ECFE38B905F12801484603F0E6FE2A
:1034500008B9012000E0002082465146284600F0CD
:103460008CFB0646701E0121814001F0FF08E96DCA
:103470003144491EB1FBF6FBBAF1000F05D0686F6D
:1034800018B16C6F0120079016E024214046FCF72C
:10349000E1FE044614B92D48089039E0002707E002
:1034A00007EBC70104EB810001F0CBFE781CC7B22B
:1034B0004745F5DB00200790079898B900BF18989A
:1034C00033464A462146CDE900B0284600F066FB67
:1034D000089000B11CE000BFBAF1000F02D06C6789
:1034E000C5F8788000BFDDE9162118982346CDE99C
:1034F000016BCDF80080CDE9032105902846DDE978
:103500000A1200F025F8089000B101E000BF00BFEA
:10351000686FA04200D1002474B1002707E007EBD8
:10352000C70104EB810001F07BFE781CC7B2474560
:10353000F5DB204600F02EFF089810B10A9801F044
:103540006FFE08980DB0BDE8F08F000080B2FFFF5D
:103550002DE9F04FCBB082460D4616461F46DDF8EA
:1035600050B1DDF86091DDF85881579C6FF06D0027
:103570004A90069500BF49A95598434607AACDE948
:10358000000131465046FEF793FA4A9000B134E00C
:1035900000BF00BF5998CDE90249CDF804800490DE
:1035A00007A85B463A4600905046069900F029F875
:1035B0004A9000B121E000BF00BF9DF82421504691
:1035C000069900F077FC4A9000B116E000BF54B1B4
:1035D00000BF4B4622465046069900F081FB4A90B8
:1035E00000B10AE000BF00BF5046069900F02BF979
:1035F0004A9000B101E000BF00BF4A984BB0BDE85F
:10360000F08F2DE9F04F8BB080460D4691469A46DB
:10361000DDE915B7149E6FF06D000A9001A801F066
:1036200010FE5C4600BF305D53464A462946009076
:10363000404600F071FC0A9000B13DE000BF00BFC1
:10364000012105F1180004F079FB0A9000B133E084
:1036500000BF57B100BF3A4629464046179B00F0CD
:103660003FFB0A9000B127E000BF22E0641E00BFCC
:103670002A4629464046FEF79FFB0A9000B11BE010
:1036800000BF00BF305D53464A4601A90090404646
:1036900000F042FC0A9000B10EE000BF00BF01AB99
:1036A0002A4629464046FDF793FF0A9000B103E001
:1036B00000BF002CDAD100BF01A801F0B1FD0A98CB
:1036C0000BB0BDE8F08F2DE9F04F8FB006460C46E9
:1036D00090469946DDE9187B6FF06D000E9005A8C5
:1036E00001F0AFFD02A804F066F900BF494602A848
:1036F00003F0EEFD0E9000B19BE000BF00BF494615
:1037000005A801F023FA0E9000B192E000BF00BFBF
:103710000121204604F012FB0E9000B189E000BFA9
:1037200000BF002104F1180004F008FB0E9000B166
:103730007FE000BF04F10C0004F02FF809E000BFA7
:10374000321D05A905A804F03DFF0E9000B170E000
:1037500000BF311D05A803F061FD0028EFDA57B165
:1037600000BF5B463A4605A9304600F045FB0E9087
:1037700000B15EE000BF404603F0CFFC05463EE0EE
:103780002946404604F0D9F800F0FF0A00BF52462F
:1037900005A9204604F058FD0E9000B149E000BF95
:1037A00000BF52460BA904F1180004F04DFD0E9025
:1037B00000B13EE000BF00BF02A805A9234605AA4C
:1037C000CDE9001021463046FEF7CCF90E9000B14D
:1037D0002FE000BF00BF524605A9204604F034FD8B
:1037E0000E9000B125E000BF00BF52460BA904F1C6
:1037F000180004F029FD0E9000B11AE000BF281E49
:10380000A5F10105BCD157B100BF5B463A46214640
:10381000304600F0F1FA0E9000B10AE000BF00BFA0
:103820002146304600F080F90E9000B101E000BF63
:1038300000BF05A801F0F4FC02A803F0AEFF0E984B
:103840000FB0BDE8F08F70B586B005460C466FF03E
:103850006D06002104F1180003F0C4FC10B900202B
:1038600006B070BD03A804F0A6F8684604F0A3F8FB
:1038700000BF2A1D04F1180103A804F0A4F8061ED5
:1038800000D039E000BF00BF03AB03AA6946284659
:1038900004F02CFB061E00D02EE000BF00BF6B46DC
:1038A00022462146284604F021FB061E00D023E0D4
:1038B00000BF00BF6B4604F10C021146284604F01D
:1038C00015FB061E00D017E000BF00BF03AB04F1DC
:1038D0000C021146284604F009FB061E00D00BE03E
:1038E00000BF00BF012104F1180004F027FA061EF2
:1038F00000D001E000BF00BF03A803F04EFF684600
:1039000003F04BFF3046ABE72DE9F04389B080462A
:103910000D4616466FF06D09022E06D24046296804
:10392000FFF791FF09B0BDE8F0830C213046FCF7AA
:1039300091FC071E01D17B48F4E7002406E004EB6C
:10394000440107EB810004F036F8641CB442F6D35E
:1039500006A804F030F803A804F02DF8684604F037
:103960002AF800BF286800F11801384603F0B0FCBF
:10397000B0F1000900D0BBE000BF012416E000BF99
:1039800055F8240000F11803601E00EB400007EB1F
:10399000800204EB440007EB8001404604F0A6FAE5
:1039A000B0F1000900D0A3E000BF641CB442E6D32C
:1039B00000BF701E00EB400007EB800108F104021D
:1039C00006A804F000F8B0F1000900D090E000BFB4
:1039D000741E00BF4CB900BF06A903A803F078FC11
:1039E000B0F1000900D083E01EE000BF601E00EBD4
:1039F000400007EB800306AA03A9404604F076FACC
:103A0000B0F1000900D073E000BF00BF55F82400FA
:103A100000F1180306AA06A9404604F067FAB0F1BF
:103A2000000900D064E000BF00BF03AB03AA6946F1
:103A3000404604F05BFAB0F1000900D058E000BF46
:103A400000BF55F8242055F824106B46404604F07A
:103A50004DFAB0F1000900D04AE000BF00BF55F8B0
:103A6000240000F10C0255F8240000F10C016B4613
:103A7000404604F03BFAB0F1000900D038E000BF46
:103A800000BF55F8240000F10C0255F8240000F1A5
:103A90000C0103AB404604F029FAB0F1000900D054
:103AA00026E000BF00BF55F82400D8F8081004F045
:103AB00040FDB0F1000900D01AE000BF00BF55F88A
:103AC000242002F10C00D8F8081004F032FDB0F107
:103AD000000900D00CE000BF55F8241001F11800D7
:103AE00003F05BFE04B901E0641E73E700BF00BF92
:103AF00006A803F052FE03A803F04FFE684603F049
:103B00004CFE002406E004EB440107EB810003F0C7
:103B100044FE641CB442F6D3384600F03BFC4846F1
:103B200000E7000080B2FFFF70B505460C466FF05D
:103B30006D0600BF2A1D04F11801084603F043FF7B
:103B4000061E00D017E000BF00BF04F11803224694
:103B50002146284604F0CAF9061E00D00BE000BF3B
:103B600000BF012104F1180004F0E8F8061E00D09F
:103B700001E000BF00BF304670BD0246D36DB3F513
:103B8000C07F01D3052300E00423184609B1431C7C
:103B9000D8B2D36D834200D8022070472DE9FF4F81
:103BA000A1B00E4693469846DDF8B8906FF06D00D0
:103BB00020900024A8F101000121814001F0FF0ABA
:103BC00000BF5946304600F0C1FF209000B182E0AE
:103BD00000BF002425E0B4FBF9F101208840C5B204
:103BE00005EBC50006EB8007B4FBF9F009FB1040BC
:103BF00060B900BF681000EBC00006EB80013846DA
:103C000000F0A4FF209000B165E000BF00BF3A467D
:103C100039462198FEF7D0F8209000B15BE000BF54
:103C2000641CA8F1010000FB09F0A042D3D80024D5
:103C300001250AE005EBC50006EB80022046641C66
:103C400001A941F820206806050E5545F2DB00BFAA
:103C5000224601A92198FFF757FE209000B13AE0D3
:103C600000BF01251CE02C4614E000BF05EBC50099
:103C700006EB800304EBC40006EB8002281900EB7E
:103C8000C00006EB80012198FDF7A2FC209000B156
:103C900021E000BF201EA4F10104E6D16806050E54
:103CA0005545E0DB002408E004EBC40006EB80008F
:103CB000243001A941F82400641C601C5045F3D352
:103CC00000BF224601A92198FFF71EFE209000B1F7
:103CD00001E000BF00BF209825B0BDE8F08F0000D4
:103CE0002DE9F04786B005460C4616461F466FF094
:103CF0006D084FF0000AA86DC01D4FEAD00903A857
:103D000003F059FE684603F056FE00BF00BF3B4675
:103D10003246494603A803F0FEFCB0F1000800D08B
:103D20005FE000BF09E000BF012103A804F0ACFB85
:103D3000B0F1000800D054E000BF291D03A803F033
:103D40006DFA0028EFDA50460AF1010A0A2803DD6D
:103D5000284806B0BDE8F087012103A803F042FA25
:103D60000028D3DD00BF03AB04F11802114628463A
:103D700004F0BCF8B0F1000800D032E000BF00BF92
:103D800003AB03AA6946284604F0B0F8B0F1000876
:103D900000D026E000BF00BF6B46224621462846E1
:103DA00004F0A4F8B0F1000800D01AE000BF00BF92
:103DB00003AB6A466946284604F098F8B0F100085B
:103DC00000D00EE000BF00BF6B4604F10C021146AC
:103DD000284604F08BF8B0F1000800D001E000BFE5
:103DE00000BF03A803F0D9FC684603F0D6FC4046A8
:103DF000AFE7000000B3FFFF2DE9FE4F05460C467C
:103E000016461F466FF06D084FF0000AA86DC01DE2
:103E10004FEAD009684603F0CEFD00BF00BF3B4625
:103E200032464946684603F076FCB0F1000800D0FF
:103E300039E000BF09E000BF0121684604F024FB1F
:103E4000B0F1000800D02EE000BF291D684603F045
:103E5000E5F90028EFDA50460AF1010A0A2802DDE6
:103E60001348BDE8FE8F0121684603F0BBF9002826
:103E7000D4DD00BF6B4622462146284604F036F8C2
:103E8000B0F1000800D00EE000BF00BF6B4604F1A7
:103E900018021146284604F029F8B0F1000800D0B5
:103EA00001E000BF00BF684603F077FC4046D8E75A
:103EB00000B3FFFF2DE9FE4305460C4616466FF0A2
:103EC0006D07684603F077FD00BF04F10C02291D61
:103ED000684604F011FC071E00D017E000BF002167
:103EE00004F10C0003F07EF908B1012000E000208D
:103EF000804600BF06EA0802694604F10C0004F09F
:103F00005CF9071E00D001E000BF00BF684603F067
:103F100044FC3846BDE8FE832DE9F05F82460D463D
:103F200016461F46DDF828806FF06D0BC8F3450973
:103F300000242AE000BF4C4501D1012000E0002010
:103F4000024604EBC40006EB8001284604F035F974
:103F5000B0F1000B00D027E000BF00BF4C4501D1FD
:103F6000012000E00020024604EBC40006EB8000C4
:103F700000F10C0105F10C0004F01FF9B0F1000B89
:103F800000D011E000BF601CC4B2BC42D2DB00BF55
:103F90004FEAE81229465046FFF78CFFB0F1000BBC
:103FA00000D001E000BF00BF5846BDE8F09F000010
:103FB00070B504466FF06D0500BF30A2102104F10A
:103FC000100004F039F8051E00D051E000BF00BF1A
:103FD0000121201D03F0B2FE051E00D048E000BF05
:103FE00000BFFF21201D04F0C5F9051E00D03FE0F1
:103FF00000BF00BF1322211D201D04F031FB051E50
:1040000000D035E000BF201D03F087F8A06500BF99
:104010001CA2102104F14C0004F00EF8051E00D083
:1040200026E000BF00BF0122FC2104F14C0004F097
:1040300067F9051E00D01BE000BF00BF092104F195
:10404000280003F07BFE051E00D011E000BF00BF7A
:10405000012104F1400003F071FE051E00D007E0CD
:1040600000BF04F1340003F098FBFE20E06500BFC0
:1040700015B1204600F04FFE284670BD3031444255
:1040800034320000313444454639444541324637E4
:10409000394344363538313236333141354346358C
:1040A00044334544000000003EB504466FF06D0502
:1040B000684603F080FC00BF41A2102104F110000B
:1040C00003F0BAFF051E00D070E000BF00BF012161
:1040D000201D03F033FE051E00D067E000BF00BFC7
:1040E000E021201D04F046F9051E00D05EE000BF6F
:1040F00000BF0122211D201D04F0B2FA051E00D0D0
:1041000054E000BF00BFE021201D04F033F9051E7C
:1041100000D04BE000BF00BF0122211D201D04F094
:104120009FFA051E00D041E000BF201D02F0F5FF00
:10413000A06500BF052104F1280003F0FFFD051E66
:1041400000D033E000BF00BF012104F1400003F0C4
:10415000F5FD051E00D029E000BF04F1340003F096
:104160001CFB00BF01224FF4DF7104F14C0004F08E
:10417000C7F8051E00D019E000BF00BF12A2102131
:10418000684603F059FF051E00D00FE000BF00BFD6
:104190006A4604F14C01084604F0AEFA051E00D050
:1041A00004E000BF40F2BF10E06500BF684603F0C6
:1041B000F4FA15B1204600F0AEFD28463EBD0000E1
:1041C000393841410000000038333335444331363B
:1041D0003342423132344236353132394339364650
:1041E0004445393333443844373233413730414121
:1041F00044433837334436443534413742423044FF
:1042000000000000F0B5A1B005466FF03B060027A6
:10421000D5F8E00010B9301F21B0F0BD00243CE01B
:1042200004EB840105F1E40000EB81000069012842
:1042300000D101270020009004EB840205F1E40185
:1042400001EB820104EB8402486805F1E40151F8B6
:1042500022C06B46802201A9E047061E00D024E060
:104260000098C8B1E1B201AA2846009B00F023F8EB
:10427000061E01D03046CFE704EB840105F1E400CF
:1042800000EB810080680099014404EB840205F191
:10429000E40000EB82008160641CD5F8E000A042DD
:1042A000BEDC0FB96FF03C0600BF802101A804F00E
:1042B000E3FA3046B0E72DE9F04792B0044688466D
:1042C00016461D462F46B1464FF0000A402F0CD926
:1042D000002301AA2946304604F0E1FCB0F1000AAF
:1042E00000D026E00DF1040940278DF84480F8B293
:1042F0008DF84500206840B9002104F1080004F061
:1043000001FDB0F1000A00D013E00120206002227C
:1043100011A904F1080004F087FDB0F1000A00D0F3
:1043200007E03A46494604F1080004F07DFD824664
:1043300000BF402101A804F09FFA504612B0BDE82A
:10434000F0872DE9F04105460E46144698466FF079
:104350006D077142D4E90102401E42F8201000BFEF
:104360002A462146284604F02DF9071E00D004E015
:1043700000BF4FF0FF30286000BF3846BDE8F08135
:1043800070B504460D46E1B20020FCF7A1F92046C5
:1043900070BD000010B5002821D0114B0022001F75
:1043A000196803E0814203D80A4649680029F9D117
:1043B00052B11368841A9C4204D1006818441060FA
:1043C000104602E0506000E0186039B102680B1A34
:1043D000934203D10B681A4402604968416010BDE2
:1043E000700000200146302901D300207047481C8E
:1043F0004008FBE7FCF723F8FCF7FAF96420FCF728
:104400007BFE0DA0FCF7C8FAFCF738FF13E0002094
:10441000FCF752F90120FCF743F94FF47A70FCF7EE
:104420006BFE0020FCF73CF90120FCF745F94FF446
:104430007A70FCF761FEEAE73132333435363738CB
:104440000D0A0000F0B50B30154D20F007010024D7
:10445000144A0FE003688B420BD38B4205D95E1AD6
:1044600043184768C3E9006700E04368136002C06F
:1044700004E0021D10680028ECD12046002802D17B
:10448000286808B10020F0BD064A07481060074AB6
:10449000121A22F00702C0E9002401202860D7E7A1
:1044A00074000020700000202C0500202819002036
:1044B0002DE9F04107460C4615461E4600BF00BFD9
:1044C00000BF00BF00BF00BF00BF00BF012C06D16E
:1044D00032462946384601F033FBBDE8F0813246CA
:1044E0002946384601F072F8F7E710B5044604B9DA
:1044F00010BD4FF48C71204604F0BEF900BFF7E701
:1045000010B5044600BF00BF4FF48C712046FBF786
:104510008FFE10BDF0B503460C46154600BF00BF28
:1045200000BF00BF802D05D0C02D06D0B5F5807F1F
:1045300009D105E00A20186008E00C20186005E0A9
:104540000E20186002E06FF01F00F0BD00BF03F105
:1045500008015960002216E014F82200012606EB3B
:104560008206A65D40EA0620022606EB8206A65DCC
:1045700040EA0640032606EB8206A65D40EA066096
:1045800041F82200521CB2EB551FE5D318680A28E7
:1045900004D00C2830D00E282DD163E0002228E072
:1045A0005A4E56F82260086870408E89C6F3072676
:1045B000574FBE5D7040CE68C6F30746BE5D80EAC9
:1045C0000626C868000E385C86EA00400E7BBE5D99
:1045D00080EA066008610E694868704048614E696B
:1045E0008868704088618E69C8687040C861521CD4
:1045F00010310A2AD4D386E0002230E0434E56F828
:104600002260086870408E8AC6F30726404FBE5D60
:1046100070404E69C6F30746BE5D80EA06264869CB
:10462000000E385C86EA00400E7DBE5D80EA0660C2
:1046300088618E6948687040C861CE69886870403A
:1046400008620E6AC868704048624E6A0869704025
:1046500088628E6A48697040C862521C1831082A04
:10466000CCD350E000224BE0284E56F82260086878
:1046700070408E8BC6F30726254FBE5D7040CE6915
:10468000C6F30746BE5D80EA0626C869000E385CA0
:1046900086EA00400E7FBE5D80EA066008620E6A10
:1046A0004868704048624E6A8868704088628E6AC6
:1046B000C8687040C86291F82C60BE5D086970409F
:1046C0008E8DC6F30726BE5D80EA0620CE6AC6F34D
:1046D0000746BE5D80EA0646C86A000E385C86EA78
:1046E000006008630E6B4869704048634E6B8869D0
:1046F000704088638E6BC8697040C863521C20315B
:10470000072AB1D300BF00BF00201EE74CB8000845
:104710004C96000802464FF00041002005E002EAF6
:10472000010303B103E04908401C2028F7D300BF70
:10473000704710B5044604B910BD04F12000FFF71E
:10474000D4FE4FF4A071204604F096F800BFF3E7C2
:1047500010B504464FF4A0712046FBF769FD4FF0F9
:10476000FF30206110BD2DE9F84304460D46164682
:104770006FF06D07A04600200346324629460090A0
:10478000404600F004F807463846BDE8F8832DE9B6
:10479000F04F93B081468A4615469B461C9F0020E9
:1047A00012904C46CDF814A0B5F5806F04D96FF087
:1047B000350013B0BDE8F08FB7F5807F02D96FF0F8
:1047C0003700F6E7302106A8FBF732FDE1692069E2
:1047D000884201DC606948B13A465946204600F0FB
:1047E00055F8129008B11298E3E7002777B13A46DE
:1047F000594606A8FCF756FB129000B13CE006A90A
:104800002046FCF728FC129000B135E027E0102686
:1048100008E0701E205C401CC1B2701E215401B122
:1048200002E0761E002EF4DC00BF01AB224601211F
:1048300004F12000FFF73CFE129000B11CE0102DA7
:1048400001D9102000E028468046424601A905987B
:10485000FBF7C7FC059840440590A5EB0805002D23
:10486000D5D106A92046FCF7F6FB129000B103E073
:104870002069401C206100BF302106A803F0FCFF26
:10488000102101A803F0F8FF129892E770B50446D2
:104890000D461646002332462946204600F001F810
:1048A00070BD2DE9F043E1B00446884617461D4629
:1048B00000266FF06D09A069B0F5C07F04D96FF0D4
:1048C000370061B0BDE8F083A069C0F5C070A842B0
:1048D00002D26FF03700F4E7A069C0F5C070401B4A
:1048E000B84202D26FF03700EBE74FF4C07101A875
:1048F000FBF79EFC01A9D4F83831A269D4F83C0139
:10490000984710B16FF03300DBE7A06906445DB152
:104910002A4601A9D4F83831D4F83C01984710B19F
:104920006FF03300CDE72E44B8F1000F07D037B158
:1049300001A988193A464146FBF753FC3E443246EA
:1049400001A901A8FCF7AEFAB0F1000900D00AE015
:1049500001A92046FCF77FFBB0F1000900D002E07E
:104960000120206100BF4FF4C07101A803F084FF53
:104970004846A6E72DE9F04788B004460D4616469E
:104980001F46DDF840806FF06D0920216846FBF777
:104990004FFC04F12000FFF7B3FDC4F83851C4F810
:1049A0003C61A06908B93020A0612069002801DBC2
:1049B000206902E0A069FFF715FD824642F21070FF
:1049C000E0614FF48072694604F12000FFF7A2FD18
:1049D000B0F1000903D0484608B0BDE8F08753465F
:1049E000424639462046FFF75CFFB0F1000901D08E
:1049F0004846F1E70020EFE72DE9FE4304460D4667
:104A000016461F46DDE90A8900BF00BF00BF00BF90
:104A100000BF00BF00BF00BF00203B463246294612
:104A2000CDE9008902902046FCF7C4FBBDE8FE8377
:104A30002DE9FC4104460D4616461F46DDF8208050
:104A400000BF00BF00BF00BF00BF00BF00BF00BF6E
:104A500000203B4632462946CDE900802046FCF73F
:104A6000E3FBBDE8FC81000070B504460D4600BFC5
:104A700000BF00BF00BF204600F042F902281ED14F
:104A80000021284602F059FF58B90121284602F0BA
:104A900054FF30B9284602F040FB401EE16D8842C9
:104AA00001D0134870BDE06DFE2806D102212846D2
:104AB00002F043FF08B10E48F4E70020F2E7204679
:104AC00000F01EF9012810D10121284602F08AFBCE
:104AD000002806DB04F14C01284602F09FFB002869
:104AE00001DB0348DEE70020DCE70248DAE70000EC
:104AF00080B3FFFF80B0FFFF70B505460C4600BFD6
:104B000000BF00BF00BF012104F1180002F06AFBE2
:104B100008B10C4870BD284600F0F2F8022804D114
:104B200021462846FCF7D4FEF4E7284600F0E8F8D2
:104B3000012804D121462846FCF7DCFEEAE70248BA
:104B4000E8E7000080B3FFFF80B0FFFF70B50446C8
:104B50000D466FF06D0600BF00BF00BF00BF00BF75
:104B60002946204602F0B4FB061E00D017E000BF25
:104B700000BF05F10C0104F10C0002F0A9FB061EB8
:104B800000D00CE000BF00BF05F1180104F11800CF
:104B900002F09EFB061E00D001E000BF00BF3046C1
:104BA00070BD00002DE9F84F04460F4691469A4625
:104BB000DFF8448100BF00BF00BF00BF00BF00BFDF
:104BC000E06DC01DC508204600F09AF8022853D1B8
:104BD00000BF00BF53464A462946384602F09BFDB7
:104BE000B0F1000800D085E000BF384602F095FA29
:104BF0000028EED0384602F090FA461EE06DB04232
:104C00000AD200BFE06D311A384603F03DFCB0F126
:104C1000000800D06EE00AE000BF01223846E16DD6
:104C200003F06EFBB0F1000800D063E000BF00BFEE
:104C300000221146384603F063FBB0F1000800D0B3
:104C400058E000BF00BF00220121384603F058FBA6
:104C5000B0F1000800D04DE000BFE06DFE280AD1A1
:104C600000BF00220221384603F04AFBB0F10008E1
:104C700000D03FE000BF00BF204600F041F801280F
:104C800037D100260020009000BF00BF53464A469F
:104C90002946384602F03FFDB0F1000800D029E077
:104CA00000BF00BFE26DC2EBC501384603F0ECFB6C
:104CB000B0F1000800D01DE000BF701C06461E28A1
:104CC00002DD0E48BDE8F88F6A4604F14C01384613
:104CD00003F05AF88046B8F1000F00D00AE0012135
:104CE000384602F07FFA0028CFDB00980128CCD1AB
:104CF00000BF00BF4046E5E780B0FFFF00B3FFFF05
:104D00000146086B08B900207047C86B08B902203B
:104D1000FAE70120F8E770B5044604B970BD206ECB
:104D2000012812D0201D02F038FD04F1100002F01D
:104D300034FD04F11C0002F030FD04F1280000F005
:104D40006FFA04F14C0002F028FD606F78B1002585
:104D500007E005EBC502616F01EB820000F060FA2D
:104D60006D1CA06FA842F4D8606FFFF713FB7C2185
:104D7000204603F081FD00BFD0E710B5044600BF18
:104D800000BF00202070201D02F015FE04F110006D
:104D900002F011FE04F11C0002F00DFE04F12800E7
:104DA00000F04FFA04F14C0002F005FE0020A0656F
:104DB000E06520666066A066E06620676067A067C1
:104DC00010BD000003B589B000BF00BF0998FFF710
:104DD000A2FFDDE9091008700A980E287ED2DFE8EC
:104DE00000F07D07213A536CD4E9FDFC87A0BBFBA2
:104DF00091490998416618209049914BCDE90530B9
:104E0000CDE907108F49904BCDE90130CDE9031072
:104E10000020034618228D4900900998FDF752F9A9
:104E20000BB000BD8A49099841661C2089498A4B0C
:104E3000CDE90530CDE907108849894BCDE901302E
:104E4000CDE90310002003462022864900900998EE
:104E5000FDF738F9E4E78449099841662020834941
:104E6000834BCDE90530CDE907108249824BCDE96E
:104E70000130CDE903100020034620227F49009035
:104E80000998FDF71FF9CBE77D4909984166302065
:104E90007C497D4BCDE90530CDE907107B497C4B42
:104EA000CDE90130CDE903100020034630227949D5
:104EB00000900998FDF706F9B2E77749099841662D
:104EC00044207649764BCDE90530CDE90710754988
:104ED000754BCDE90130CDE9031000E0A6E00020DC
:104EE00003464422714900900998FDF7EBF897E7D3
:104EF0006F490998416618206E496F4BCDE905301E
:104F0000CDE907106D4904226D4BCDE901326D4B9F
:104F10000092CDE9031018226B490998FDF7D2F8E9
:104F20007EE76A4909984166202069491C22694B3D
:104F3000CDE90532CDE90710104667490422674BD9
:104F4000CDE90132664B0092CDE903101C22654980
:104F50000998FDF7B7F863E763490998416620208F
:104F60006249634BCDE90530CDE907106149042260
:104F7000614BCDE90132614B0092CDE90310202253
:104F80005F490998FDF79EF84AE720205D495E4B8E
:104F9000CDE90530CDE907105C495D4BCDE9013025
:104FA000CDE903105B4B20225B4900900998FDF787
:104FB00089F835E730205949594BCDE90530CDE91D
:104FC00007105849584BCDE90130CDE90310574B34
:104FD00030225749009002E021E019E003E00998EF
:104FE000FDF770F81CE740205249534BCDE90530DE
:104FF000CDE907105149524BCDE90130CDE90310FD
:10500000504B4022504900900998FDF75BF807E7A4
:105010004E49099841660998FEF7CAFF00E74C49D6
:10502000099841660998FFF73FF8F9E600210998C9
:1050300001704848F4E60000E722000850BF00086D
:1050400038BF000820BF000808BF0008F0BE0008F5
:10505000B9230008DCBF0008C0BF0008A4BF0008D7
:1050600088BF000868BF00083527000878C000081E
:1050700058C0000838C0000818C00008F8BF000871
:10508000F52B000858C1000828C10008F8C0000826
:10509000C8C0000898C00008F132000898C2000893
:1050A00054C2000810C20008CCC1000888C1000822
:1050B0009D2300082CC3000814C30008FCC200088C
:1050C000F8C20008F4C20008DCC20008612600082B
:1050D000A0C3000884C3000868C3000864C30008B4
:1050E00060C3000844C30008D92B000828C4000886
:1050F00008C40008E8C30008E4C30008E0C30008CF
:10510000C0C30008E8C40008C8C40008A8C4000858
:1051100088C4000868C4000848C40008F8C500082E
:10512000C8C5000898C5000868C5000838C500084B
:1051300008C5000868C7000828C70008E8C60008B6
:10514000A8C6000868C6000828C600087D26000812
:10515000ED31000880B1FFFF10B5044600BF00BF6D
:10516000002104F1180002F03DF808B9012010BD3B
:105170000020FCE72DE9FE4F8046894614461D4677
:10518000DDE90D7A0C9EDFF894B000BF00BF00BFD0
:1051900000BF00BF00BF00BF00BF00BF21464046A8
:1051A000FFF762FCB0F1000B00D033E000BF00BF9E
:1051B00029464046FFF7A0FCB0F1000B00D029E0E3
:1051C00000BFDFF858B04046FFF79AFD02280DD126
:1051D00000BF2B46224649464046CDE90067FEF710
:1051E00072FAB0F1000B00D014E000BF4046FFF7A8
:1051F00087FD01280DD100BF2B4622464946404677
:105200008DE8C004FEF710F9B0F1000B00D001E00A
:1052100000BF00BF5846BDE8FE8F000080B0FFFF12
:1052200010B5044604B910BD204602F0B6FA04F1E8
:105230000C0002F0B2FA04F1180002F0AEFA00BF5E
:10524000F1E710B5044600BF00BF204602F0B3FBF3
:1052500004F10C0002F0AFFB04F1180002F0ABFB0C
:1052600010BD00002DE9F05F82460F4691461C46B6
:10527000DDE90A58DFF808B100BF00BF00BF00BF7A
:1052800000BF00BF00BF00BF00BF00BF0AF10400A5
:1052900003F090F906465046FFF732FD022812D17E
:1052A00026602068404503D935488038BDE8F09F26
:1052B00000BF32462946384603F0A1FAB0F1000B90
:1052C00000D05BE000BF5046FFF71AFD012854D123
:1052D000002107F1180001F085FF58B9B8F1000F5F
:1052E00002D127488038E1E70020287001202060A3
:1052F0000020DBE7B9F1000F22D17000401C2060D4
:105300002068404502D91E488038CFE70420287025
:1053100000BF3246691C384603F030FAB0F1000B8A
:1053200000D02BE000BF00BF681C8119324607F196
:105330000C0003F023FAB0F1000B00D01EE01CE0DB
:10534000B9F1010F19D1701C20602068404502D9C5
:105350000B488038AAE7002107F10C0002F0EDFAB3
:10536000801C287000BF3246691C384603F006FADC
:10537000B0F1000B00D001E000BF00BF584695E738
:1053800080B1FFFF70B504466FF06D0500BF00BF30
:1053900000BF0121204602F0D1FC051E00D015E01F
:1053A00000BF00BF012104F10C0002F0C7FC051E84
:1053B00000D00BE000BF00BF002104F1180002F094
:1053C000BDFC051E00D001E000BF00BF284670BD37
:1053D00010B5044604F1080003F04EFC0020C4F8A8
:1053E000E0004FF4C87104F1E40003F045FA002036
:1053F000206010BD2DE9F04F91B006460F46904653
:105400004FF0000B3446B8F1400F04D96FF03B0069
:1054100011B0BDE8F08F00BF58460BF1010BB0F59D
:10542000807F02DD6FF03B0983E02046FEF7EAFE55
:10543000B0F1000900D07CE0012010904FF0000A8C
:10544000002523E005EB850104F1E40000EB810079
:1054500005EB8502816804F1E40000EB8200C0687E
:10546000814201D20020109005EB850104F1E40097
:1054700000EB81000069012807D105EB850104F1EB
:10548000E40000EB8100806882446D1CD4F8E000E9
:10549000A842D7DC10980028BED0BAF1400FBBD389
:1054A00040216846FAF7C4FE694604F1080003F09B
:1054B000F3F9B0F1000900D03BE004F1080003F07B
:1054C000DBFB04F1080003F0E1FB002104F108001C
:1054D00003F018FCB0F1000900D02AE04022694630
:1054E00004F1080003F0A0FCB0F1000900D020E0B6
:1054F00000236A464021684603F0D1FBB0F1000961
:1055000000D016E0002508E0002105EB850204F13B
:10551000E40000EB820081606D1CD4F8E000A8423A
:10552000F2DC424669463846FAF75BFE4FF0000966
:1055300000BF4021684603F09FF9484668E710B570
:1055400004460020C4F8E0004FF4C87104F1E40000
:10555000FAF76EFE0020206004F1080003F096FBCD
:1055600010BD2DE9F05F06468B4691469A46B9F18B
:10557000000F01D04E450AD3BAF1000F03D04FF00F
:10558000FF30CAF800004FF0FF30BDE8F09F002761
:10559000B046464647EA0B074A460023384641468E
:1055A000FAF7EEFD04460D460022D4F1FF30AA4181
:1055B00001D24FF0FF34BAF1000F04D0A4FB09016F
:1055C000381ACAF800002046DFE70000F0B589B0BD
:1055D00006460C461546706808902078617840EAC7
:1055E0000120A17840EA0140E17840EA016007909B
:1055F000089800680899091D089107994840079084
:105600002079617940EA0120A17940EA0140E179FD
:1056100040EA01600690089800680899091D089101
:10562000069948400690207A617A40EA0120A17AE2
:1056300040EA0140E17A40EA01600590089800687C
:105640000899091D0891059948400590207B617BC8
:1056500040EA0120A17B40EA0140E17B40EA016091
:105660000490089800680899091D08910499484019
:10567000049001213068C1EB600704E100BF089885
:1056800000680899091D08910799C9B2FE4A52F8A5
:10569000211048400499C1F30721FC4A52F8211017
:1056A00048400599C1F30741F94A52F82110484092
:1056B0000699090EF74A52F82110484003900898BD
:1056C00000680899091D08910699C9B2EE4A52F876
:1056D000211048400799C1F30721EC4A52F82110E4
:1056E00048400499C1F30741E94A52F82110484063
:1056F0000599090EE74A52F821104840029008988F
:1057000000680899091D08910599C9B2DE4A52F846
:10571000211048400699C1F30721DC4A52F82110B4
:1057200048400799C1F30741D94A52F8211048402F
:105730000499090ED74A52F8211048400190089860
:1057400000680899091D08910499C9B2CE4A52F817
:10575000211048400599C1F30721CC4A52F8211085
:1057600048400699C1F30741C94A52F82110484000
:105770000799090EC74A52F821104840009000BF0F
:1057800000BF089800680899091D08910399C9B2DB
:10579000BD4A52F8211048400099C1F30721BB4A85
:1057A00052F8211048400199C1F30741B84A52F814
:1057B000211048400299090EB64A52F8211048407B
:1057C0000790089800680899091D08910299C9B2C4
:1057D000AD4A52F8211048400399C1F30721AB4A62
:1057E00052F8211048400099C1F30741A84A52F8E5
:1057F000211048400199090EA64A52F8211048404C
:105800000690089800680899091D08910199C9B285
:105810009D4A52F8211048400299C1F307219B4A42
:1058200052F8211048400399C1F30741984A52F8B1
:10583000211048400099090E964A52F8211048401C
:105840000590089800680899091D08910099C9B247
:105850008D4A52F8211048400199C1F307218B4A23
:1058600052F8211048400299C1F30741884A52F882
:10587000211048400399090E864A52F821104840E9
:10588000049000BF7F1E002F3FF7F8AE00BF0898BE
:1058900000680899091D08910799C9B27A4A52F817
:1058A000211048400499C1F30721784A52F8211089
:1058B00048400599C1F30741754A52F82110484004
:1058C0000699090E734A52F821104840039008982F
:1058D00000680899091D08910699C9B26A4A52F8E8
:1058E000211048400799C1F30721684A52F8211056
:1058F00048400499C1F30741654A52F821104840D5
:105900000599090E634A52F8211048400290089800
:1059100000680899091D08910599C9B25A4A52F8B8
:10592000211048400699C1F30721584A52F8211026
:1059300048400799C1F30741554A52F821104840A1
:105940000499090E534A52F82110484001900898D2
:1059500000680899091D08910499C9B24A4A52F889
:10596000211048400599C1F30721484A52F82110F7
:1059700048400699C1F30741454A52F82110484072
:105980000799090E434A52F821104840009000BF81
:10599000089800680899091D08910399C9B23E4A00
:1059A000515C48401146009AC2F30722895C80EAA4
:1059B00001213948019AC2F30742805C81EA004123
:1059C0000298000E344A105C81EA00600790089843
:1059D00000680899091D08910299C9B2515C4840B4
:1059E0001146039AC2F30722895C80EA01212A4802
:1059F000009AC2F30742805C81EA00410198000EE0
:105A0000254A105C81EA00600690089800680899B1
:105A1000091D08910199C9B2515C48401146029A8A
:105A2000C2F30722895C80EA01201B49039AC2F372
:105A30000742895C80EA01410098000E164A105C1A
:105A400081EA00600590089800680899091D08918E
:105A50000099C9B2515C48401146019AC2F307222D
:105A6000895C80EA01210C48029AC2F30742805CFB
:105A700081EA00410398000E074A105C81EA006049
:105A800004900798287009E04CA800084CAC000866
:105A90004CB000084CB400084CA700080798000A56
:105AA00068700798000CA8700798000EE8700698B8
:105AB00028710698000A68710698000CA87106986B
:105AC000000EE871059828720598000A687205981A
:105AD000000CA8720598000EE872049828730498C8
